:10000000980700204D130000491300004913000019
:1000100000000000000000000000000000000000E0
:100020000000000000000000000000004913000074
:100030000000000000000000491300004913000008
:100040004913000049130000491300004913000040
:100050004913000049130000491300004913000030
:100060004913000049130000491300004913000020
:100070004913000049130000491300004913000010
:100080004913000049130000491300004913000000
:1000900049130000491300004913000049130000F0
:1000A00049130000491300004913000049130000E0
:1000B00049130000491300004913000049130000D0
:1000C00049130000491300004913000049130000C0
:1000D00049130000491300004913000049130000B0
:1000E00049130000491300004913000049130000A0
:1000F00049130000FF2303409B0041F6004CC4F26B
:10010000000C634480229A580120520604D44022F5
:100110001143403299500020010002000300844640
:100120008EF300887447F0B5CE46474680B587B059
:10013000029003910492059342F60023C4F2000357
:10014000986899691A6BDC69A4461F6C029E464048
:100150003E404640049B01931D004D403D404D40B4
:10016000059C54403C405440A146002100230120FE
:1001700040F20F0802E00133082B08D002009A4039
:100180001742F8D09A00444694402143F3E7604672
:10019000039B584008406346584042F60023C4F28F
:1001A00000031A7802218A431A7042F60022C4F230
:1001B0000002013153681942FCD142F60022C4F218
:1001C0000002022153681942FCD142F60023C4F216
:1001D00000039E609D614A461A63D8611A78022125
:1001E0000A431A7042F60022C4F200020131536839
:1001F0001942FCD1002007B0010002000300844630
:100200000CBC90469946F0BC02BC864681F300883F
:100210000C47000010B540F23004C2F2000423780D
:1002200063B940F20003C0F200032BB144F2200096
:10023000C0F2800000E000BF0123237010BDC04663
:1002400040F20003C0F2000310B54BB140F234019C
:1002500044F22000C2F20001C0F2800000E000BFC2
:1002600044F22000C0F28000036803B910BD40F2E0
:100270000003C0F20003002BF8D09847F6E7C04611
:1002800021B1087000234B7000207047E220FCE78A
:10029000F0B5D6464F464646C0B5944600B38946AB
:1002A000884680440023134815E06D00EDB2013EFE
:1002B00066B1DF0B5B009BB22C000C40621E9441C8
:1002C000E4B2BC42F1D043409BB2EEE740F2010AF7
:1002D000D144C14505D04A46117808260125E8E7F2
:1002E0000023624613701B0A53701CBC904699464B
:1002F000A246F0BD0580FFFF10B5411C40780238D2
:10030000C0B20A1840F29123C0F20003984710BD12
:1003100010B51B238B70143B4B70080040F2F9237F
:10032000C0F200039847002010BD10B502238B7067
:1003300005334B70080040F2F923C0F200039847E0
:10034000002010BD10B547238B70C878403B034098
:100350009B000D48C3589F4607234B70080040F28E
:10036000F923C0F200039847002010BD8B880733A3
:100370004B70F3E78B8807334B70EFE707234B7025
:10038000ECE707324A70E9E70038000010B5452372
:100390008B70CA78423B13409B000C4AD3589F464F
:1003A00047234B70080040F2F923C0F2000398473E
:1003B000002010BD87234B70F4E787234B70F1E7D3
:1003C0005A234B70EEE7E220F3E7C04620380000E6
:1003D00070B582B005000478023CE4B201AE320090
:1003E0000100200040F29123C0F2000398473278C8
:1003F0002B5DE5209A4201D002B070BD2C1901ABF3
:100400005A7863789A42F7D10020F5E70278002302
:10041000042A01D0180070474278072A20D0D3B2AE
:10042000072B0AD8012A19D0F2B1D223032AF1D01E
:100430000433052AEED0E123ECE70F2A12D0D3B221
:100440000F2B07D9F323112AE4D0D2B21F3BFF2A86
:10045000E0D0F0E7FA23082ADCD0ECE7D123D9E793
:10046000D723D7E7F423D5E70023D3E770B50500FA
:100470000C00A0B1A9B10968A9B1E22063687BB101
:10048000687840F28123C0F20003984740B9616860
:10049000280040F20973C0F20003984700E0E22010
:1004A00070BDE220FCE7E220FAE710B50300E2208D
:1004B0002BB1586840F28F63C0F20003984710BD1B
:1004C00070B50B78012B43D0002B34D0022B06D013
:1004D000032B24D001235B424B80F2201EE0142624
:1004E00043F64015C0F20005403501235B424B80C6
:1004F0002B7883420BD02A1D00230133DBB2B34299
:1005000024D215000432141F24788442F5D16B885C
:100510004B804FF6FF720020934215D070BD4B7890
:10052000282B1CD0682B21D0162643F64005C0F29C
:1005300000053835D9E701235B424B800E2643F690
:100540004005C0F20005D3E7F230E7E7F220E5E727
:10055000132643F6C015C0F200051035C5E7162670
:1005600043F6C005C0F200051035BEE7162643F677
:10057000C005C0F200056835B7E7F0B583B00600E6
:100580000D008078096840F2C143C0F2000398472B
:10059000040010B1200003B0F0BD2B685F886868CC
:1005A00040F25163C0F200039847040030B168681C
:1005B00040F27363C0F200039847EBE772783100B2
:1005C000686840F24163C0F20003984704000028C5
:1005D000EDD1380041F23933C0F2000398470636B6
:1005E000C0220021300043F2F173C0F200039847AB
:1005F0006B469A1DC02313803100686840F249633E
:10060000C0F20003984704000028D0D16B46DC8874
:10061000032C04D860426041E6300400C7E7300094
:1006200040F2D133C0F20003984704000028BED145
:10063000300040F20D43C0F2000398470400B6E7D3
:1006400010B50369984710BD10B54369984710BDB0
:1006500010B5040083699847D02800D010BDB73882
:1006600041F23933C0F200039847A369200098474C
:10067000F4E710B5C36998470400012041F239330B
:10068000C0F200039847200010BD4068704710B5C5
:100690000300E22033B1596A187840F6BB63C0F218
:1006A0000003984710BD70B504000D00406840F687
:1006B0005B63C0F2000398472B68A3606B68E3603C
:1006C000AB682361EB6863612B69A361AB6923624B
:1006D0006B69E3612B6A6362002070BD10B58AB05C
:1006E000040001A940F2A763C0F2000398476168C3
:1006F00001A8A368984708B10AB010BD099B6362BE
:10070000E36820009847F7E710B568B1E22349B1E4
:1007100003780B704860080040F2DD63C0F200030C
:1007200098470300180010BDE223FBE710B540F224
:100730004C03C2F20003186840F2AB43C0F200035E
:10074000984728B940F24C03C2F2000300221A6015
:1007500010BD10B582B0040040F24C03C2F2000399
:100760001B6823B140F22D73C0F20003984740F29A
:100770004411C2F2000140F27413C2F200030B6094
:1007800040F24C13C2F200034B60200040F26D4374
:10079000C0F20003984758B940F24C03C2F200037C
:1007A00040F24412C2F200021A606378032B01D0B7
:1007B00002B010BD136801330122009212320021F1
:1007C00040F62B24C0F20004A0470028F0D140F2EC
:1007D0004C03C2F200031B681A68537807218B434D
:1007E0005370E5E710B5029C44B10324204038B1B2
:1007F00002280DD0012803D0E22012E0E22010E010
:10080000D200072003401A43029B1A80002008E010
:10081000C900072003400B4312021A43029B1A80AF
:10082000002010BDF2B340F24C03C2F200031B687B
:100830005B685B685B7893B9012808D018B102281F
:1008400009D0E2202FE05823136000202BE0402342
:100850001360002027E020231360002023E00128FC
:1008600008D018B1022809D0E2201CE080231360D0
:10087000002018E040231360002014E0072908D965
:1008800008290AD0E2200F290DD848231360002040
:1008900009E024231360002005E040F2A013136058
:1008A000002000E0E220704730B5B3B0050040F210
:1008B0004C03C2F200031B68186800236A46D37019
:1008C0009380694640F21133C0F200039847040058
:1008D00010B1200033B030BD40F24C03C2F200032F
:1008E0001968684640F27B53C0F200039847040041
:1008F0000028EED16B469B79232B01D0E624E8E754
:10090000002DE6D020226B46D91D280043F2DF736C
:10091000C0F200039847DCE7F0B5B9B003903EA8F9
:1009200040C807786EB140F24C00C2F20000006887
:100930000568042F1AD0E224202F04D0200039B0FB
:10094000F0BDE224FAE70E2002ACA4466044009019
:10095000039840F2E574C0F20004A04704000028A8
:10096000ECD18023039A1A4303920DE00E2002ACCF
:10097000A44660440090039840F2E574C0F200047D
:10098000A04704000028D9D106A96B461B7BCB7079
:100990000E2302AA944663441B888B80280040F2F1
:1009A0002B33C0F20003984704000028C6D140F260
:1009B0004C03C2F20003196806A840F27B53C0F250
:1009C0000003984704000028B8D13A00172102AB71
:1009D0009C466144300043F2DF73C0F20003984745
:1009E000ACE770B58AB00500E22470B12023019312
:1009F00002AB0093002300220021002040F61914CE
:100A0000C0F20004A047040010B120000AB070BD7D
:100A1000042202A9280043F2DF76C0F20006B047A4
:100A2000281D052204A9B047EFE7F0B5DE4657467A
:100A30004E464546E0B591B005000291170003937C
:100A400000230F93E224022807D9200011B03CBCF8
:100A500090469946A246AB46F0BD022824D0002419
:100A60001A9B002BF1D0E234039B002BEDD00FAA90
:100A70000299280040F62503C0F2000398470400BD
:100A80000028E2D11A9BDB19E2340F9A9342DCD89A
:100A90007B09984640F2200A40F2000B00265C4693
:100AA000AB460597574621E00F29CED8D7E74346F6
:100AB0005B010F9AD31A1F2B1AD8059B9B199B0811
:100AC00007241C401C3F13E0039B981907AB9C466E
:100AD00061442A0043F2DF73C0F20003984776199D
:100AE000202F26D001341A9BB34226D9202FDED0E6
:100AF000E3B242466946CA74CA7C019707A90091CD
:100B00000299584640F61915C0F20005A8478146DB
:100B1000A8B94346DB001B199B00002105989842A9
:100B200000D9C11A7B1A1A9A951B9D42CCD91D0077
:100B3000CAE740F2010CE044D5E74C4685E70400E3
:100B400083E7F0B5B3B00C0011001E0040F24C0377
:100B5000C2F200031B681F6807230340033B012BFD
:100B60004CD90CB1002A43D0002E43D0E225389B4B
:100B7000A3B16B46D8709C8022006B46981D43F24F
:100B8000DF73C0F20003984722006946380040F244
:100B90004533C0F200039847050010B1280033B078
:100BA000F0BD40F24C03C2F200031968684640F2FF
:100BB0007B53C0F20003984705000028EED1002EB9
:100BC000ECD06B469A79042AE8D9D31E3899098863
:100BD0008B4201DDED25E1E79AB2389B1A806B4626
:100BE000D91D300043F2DF73C0F200039847D5E708
:100BF000E225D3E76B46D8709C80BDE71EB96B46F3
:100C0000D8709C80C0E7E225389B002BC6D06B468D
:100C1000D8709C80B8E710B582B000230093002202
:100C20000021002040F64334C0F20004A04702B087
:100C300010BD10B582B002000023009340210120B6
:100C400040F64334C0F20004A04702B010BD10B516
:100C500084B003000E246C442020208000941E38B1
:100C600040F64334C0F20004A04704B010BD10B5F4
:100C70008822002143F2F173C0F20003984740F646
:100C80001743C0F20003984710BDF0B5DE46574643
:100C90004E464546E0B583B0070000911400406819
:100CA0004026361A964200D916000830381832000D
:100CB000009943F2DF73C0F2000398477B68E318A2
:100CC0003F2B0AD87B6000230193019803B03CBC02
:100CD00090469946A246AB46F0BD40F20808B8449B
:100CE000404640F63343C0F2000398470190002885
:100CF000EBD1A31B9A469B0999466BB1009B9C19AB
:100D0000002540F6334BC0F2000B2000D847D8B97D
:100D100001354034A945F8D14B4601339B013A686F
:100D2000944663443B603F2352461A407A605146E2
:100D300099438919009B9C466144404643F2DF7306
:100D4000C0F200039847C0E70190BEE7F0B585B058
:100D500004000F0040F24C03C2F200031B685B6802
:100D60005B685B78002B43D140682368C518256019
:100D7000ED0009235B421B1A3F261E40431C6360A3
:100D8000231880221A72321D09302018002143F2E4
:100D9000F173C0F20003984763689C466644A31948
:100DA0002A0E1A732A0C5A732A0A9A730836666036
:100DB000DD730E236B4420221A8022000832009338
:100DC0003B004021012040F64335C0F20005A84712
:100DD000B8B96368402B14D90E236B4420221A80C3
:100DE0002200483200933B0040210130A84708E030
:100DF000020008328188380040F64F43C0F20003F9
:100E0000984705B0F0BD70B5A2B004000D00160003
:100E1000684640F66F43C0F20003984708B122B01D
:100E200070BD2A002100684640F68B43C0F20003E3
:100E300098470028F3D13100684640F64D53C0F280
:100E400000039847EBE710B50B000100180040F6CF
:100E50000763C0F20003984710BD0378F02003B188
:100E6000704740F62573C0F200030B6040F6A7738D
:100E7000C0F200034B6041F21D03C0F20003CB60DF
:100E800040F6AD73C0F200038B6041F2BD23C0F2A7
:100E900000038B6141F26D13C0F200030B6141F25C
:100EA0006123C0F200034B6141F21533C0F200032D
:100EB000CB6100230B620020D2E710B508B1E1201E
:100EC00010BD080041F21533C0F200039847F7E760
:100ED00010B582B0040043F61C23C0F200031A6868
:100EE00001925B680093D020042901D002B010BDAC
:100EF000042201A9200043F2C173C0F20003984705
:100F000003000020002BF1D004226946200043F2A8
:100F1000C173C0F2000398470300D720002BE5D02F
:100F20000738E3E7F8B506000D004C79F020052CF2
:100F300000D9F8BDA3001F19FF0040F25002C2F211
:100F40000002944667443A6A002A0DDDA3001C198A
:100F5000E40040F25003C2F200039C4664440132B4
:100F6000226237620020E4E72022C96A380043F297
:100F7000DF73C0F200039847AA6840F2E833B2FB7F
:100F8000F3F20021380041F2DF53C0F2000398472A
:100F9000380041F2C353C0F200039847697979627F
:100FA00001223A62DDE7002070470000F0B585B00D
:100FB0000F00150040F28B63C0F200039847060053
:100FC00001AC0C220021200043F2F173C0F20003B7
:100FD000984733795B0823800F4B6380A760032316
:100FE0003B700135656073799800C018C00040F20D
:100FF0005003C2F200039C466044210041F2ED53CD
:10100000C0F2000398470300F0205A1E93415B4250
:10101000184005B0F0BDC0460088FFFFF0B5CE46D1
:10102000474680B585B08846170040F28B63C0F212
:10103000000398470500846A3B88994601AB027912
:1010400052081A802A4A5A8001220292424603928A
:1010500000233B80ED204B4623B905B00CBC9046E5
:101060009946F0BD012341F2ED56C0F2000611E0B1
:101070006B799800C018C00040F25003C2F2000320
:101080009C46604401A9B047F023421E9041404273
:101090000340013C002C22DD002BE9D143461B78A4
:1010A000E420032BD9D99AB209309145D5D3013B1D
:1010B00002934346013303936B799800C018C00034
:1010C00040F25003C2F200039C46604401A941F281
:1010D000ED53C0F20003984728B1F020BDE7002B84
:1010E000DCD0D8B2B9E743461B783B800020B4E798
:1010F0000188FFFF70B50D0040F28B63C0F2000362
:101100009847040043799800C018C00040F250038B
:10111000C2F200039C46604441F2D153C0F2000386
:10112000984740F2E832B5FBF2F263799800C018B4
:10113000C00040F25003C2F200039C46604400210C
:1011400041F2DF53C0F20003984763799800C0185A
:10115000C00040F25003C2F200039C46604441F2DA
:10116000C353C0F20003984770BD0000F0B5C646F7
:1011700000B586B00500019040F28B63C0F2000319
:1011800098470600876A8368984648F2A063C0F2D1
:101190000103984509D048F2A061C0F2010128007E
:1011A00041F2F503C0F20003984702AD43F6242351
:1011B000C0F200032A0013CB13C273799800C01841
:1011C000C00040F25003C2F200039C466044290074
:1011D00041F2ED53C0F200039847B08C41F2D14385
:1011E000C0F20003984733795B082B8004236B60BF
:1011F00005ABAB60194B6B807D1E002F20DD41F2EB
:10120000ED57C0F2000773799800C018C00040F293
:101210005003C2F200039C46604402A9B847013D56
:1012200019D30028EFD148F2A063C0F2010398451A
:1012300006D04146019841F2F503C0F200039847F9
:10124000042105A840F6D163C0F20003984706B018
:1012500004BC9046F0BD0028F2D1E4E70188FFFF0E
:1012600000B585B040F28B63C0F200039847037964
:101270005B086A461380104B53800123019303AB34
:10128000029302221A7043799800C018C00040F2FD
:101290005003C2F200039C466044694641F2ED539C
:1012A000C0F2000398470300F0205A1E93415B42AE
:1012B000184005B000BDC0460088FFFF00B585B0EE
:1012C00040F28B63C0F20003984703795B086A46DB
:1012D00013800F4B53800122019203AB02931A70CB
:1012E00043799800C018C00040F25003C2F20003D6
:1012F0009C466044694641F2ED53C0F200039847B2
:101300000300F0205A1E93415B42184005B000BD17
:101310000088FFFF10B5040020B1036A013B03629F
:10132000002B01DD002010BD41F2D153C0F20003BB
:10133000984700232362F5E710B580B241F2F743E6
:10134000C0F20003984710BDFEE7000010B543F659
:101350003032C0F2000240F20003C2F200039A42AF
:1013600020D01A0040F23003C2F200039A4219D290
:1013700040F23003C2F200030333244A9B1A9B0855
:1013800001339B00002240F20001C2F2000151181B
:1013900043F63030C0F200001018006808600432D4
:1013A0009A42F0D140F23002C2F2000240F29813A9
:1013B000C2F200039A4213D240F23002C2F200029B
:1013C000D34340F29811C2F200018C4663440321DA
:1013D0008B43043394466344002102C29342FCD100
:1013E00040F20003C0F200037F2293434EF6005206
:1013F000CEF20002936043F27173C0F2000398478B
:1014000042F2B103C0F200039847FEE70400002057
:1014100070B543F20023C4F200035020195C04228B
:1014200091431954195C0125A94301242143C9B2F0
:1014300019541838195C0F26B1430C3E3143195426
:1014400051215E5C96435E545A5CAA432243D2B259
:101450005A541A5C42390A4021310A431A5470BD69
:1014600041F60043C4F200034021AC2299500331FD
:10147000043A995040F60003C4F20003DA69413996
:101480000A43DA61704710B541F26143C0F20003CC
:10149000984740F20041C4F2002140F27810C2F2B5
:1014A000000041F27D53C0F20003984741F211431E
:1014B000C0F20003984710BD10B541F23563C0F289
:1014C0000003984741F28743C0F20003984710BDDC
:1014D00010B540F24013C2F200031C6841F20163F0
:1014E000C0F2000398470100200041F22F63C0F2D0
:1014F0000003984710BD10B540F24013C2F200033C
:101500001C6841F21763C0F20003984701002000F5
:1015100041F22F63C0F20003984710BD10B584B0AC
:10152000140001AB1438828B1A800294064A5A8048
:101530000391190041F66533C0F20003984700B9E2
:10154000200004B010BDC0460080FFFF10B584B07D
:10155000140001AB1438828B1A800294064A5A8018
:101560000391190041F66533C0F20003984700B9B2
:10157000200004B010BDC0460180FFFF70B504001C
:101580000D0043F63021C0F20001431E9841C0B265
:101590005E2241F2FB53C0F200039847290020006D
:1015A00041F6A503C0F20003984748B941F24D53F4
:1015B000C0F20003A36141F21D53C0F20003636156
:1015C00070BD10B541F6D903C0F20003984710BDB5
:1015D00010B541F65713C0F20003984710BD10B57F
:1015E00041F6A113C0F20003984710BD10B541F6B3
:1015F0006533C0F20003984710BD00B900BE7047C4
:10160000030040F2901058432C30FF3040F22C136E
:10161000B0FBF3F07047030040F2901058430230E3
:101620000323B0FBF3F08300181840007047013922
:10163000FDD8704710B545F20003C4F200135A6894
:101640005A60002041F20373C0F20003984741F250
:10165000BB63C0F20003984741F2D363C0F20003BA
:10166000984741F2AD63C0F20003984741F201731D
:10167000C0F2000398471F2041F28563C0F20003C7
:10168000984710BDC30710D541F60043C4F20003CC
:1016900040F20512C0F201021A6241F60042C4F2A1
:1016A00000027D2153681942FCD1704740F60003C7
:1016B000C4F2000301221A71704741F20043C4F2E0
:1016C0000003DA6941F600710A40DA6100221A74F7
:1016D000704741F20003C4F2000302221A7641F27D
:1016E0000002C4F20002102113691942FCD041F239
:1016F0000003C4F200031A7E80210A431A76704761
:10170000704740F20043C4F200039B780322134069
:10171000984212D040F20042C4F20002FF239371BB
:10172000937803218B4308401843907040F20042A5
:10173000C4F200029379002BFCD0704730B585B01D
:1017400001AA43F64C23C0F2000332CB32C203009D
:10175000019A82420CD0029A824207D00020039A5A
:101760009A4201D005B030BD023002E0012000E015
:101770000020C0B2F6E710B541F23D73C0F200039D
:10178000984768B143F67021C0F2000140F2A632DA
:10179000002041F2FB53C0F2000398470120404271
:1017A00010BD000070B505000C00080041F2777311
:1017B000C0F200039847C0B2E369DB0725D44300B9
:1017C0001B18DB0043F64C22C0F20002944663442F
:1017D00019691C2319400322E3691A42FCD12368CA
:1017E0009B070BD523680222934323600132E369F0
:1017F0001A42FCD10222E3691A42FCD101230B43B5
:1018000023600322E3691A42FCD10122E3691A42F0
:10181000FCD143001B18DB0043F64C22C0F200024F
:1018200094466344196921600322E3691A42FCD19A
:1018300043001B18DB0043F64C22C0F20002944622
:1018400063445B6963600422E3691A42FCD143008C
:101850001B18DB0043F64C22C0F20002944663449E
:101860009B69E3608901890FA981636A0C4E1E4060
:1018700001238B429B415B429B03334363620422FF
:10188000E3691A42FCD143001818C00043F64C2308
:10189000C0F200039C466044C38BEB81002070BD06
:1018A000FFBFFFFF70B504000D0043F67021C0F2CA
:1018B0000001431E9841C0B240F2185241F2FB535E
:1018C000C0F20003984725612900200041F2A5736A
:1018D000C0F20003984770BD70B5040043F670264F
:1018E000C0F20006431E9841C0B240F235523100AA
:1018F00041F2FB55C0F20005A84724692000431EB1
:101900009841C0B240F205623100A8472368022224
:10191000134323600132E3691A42FCD104250422F7
:10192000032010264FF6FF71E3691A42FCD1638B46
:101930001B090340012B09D001390029F4D1013DD5
:1019400035B16683E3691A42FCD1EBE7002070BD34
:1019500006204042FBE7F8B50700046943F670260D
:10196000C0F20006431E9841C0B240F2435231001B
:1019700041F2FB55C0F20005A8473869431E984163
:10198000C0B240F244523100A84723680222934378
:1019900023600132E3691A42FCD10020F8BD000047
:1019A000F0B5DE4657464E464546E0B585B00600E2
:1019B000150004690322E3691A42FCD123689B07DE
:1019C00000D5C7E0200041F27773C0F200039847CA
:1019D000B389DBB1012B6BD0022B00D0BDE06D00D1
:1019E000E3685F49194040F6A072521BB2FBF5F361
:1019F0001B04FF252D042B400B43E360002005B0A2
:101A00003CBC90469946A246AB46F0BDE76840F222
:101A1000FF0843469F43A8004019400040F6A07BC2
:101A20005B46181A43F24549C0F20009C8470090C6
:101A30000191F08943F2C133C0F20003984742F2AA
:101A4000BD76C0F200064DF29562CEF6260242F651
:101A50000B63C3F61163B047029003915B466B437F
:101A60001800C84702000B0002980399B047020013
:101A70000B0042F6CD46C0F2000600980199B0472F
:101A8000009001916800C84702000B0042F26D15FA
:101A9000C0F2000500980199A84742F23113C0F244
:101AA00000039847434618403843E0600020A6E70B
:101AB000E76840F2FF0843469F43A80040194000F2
:101AC00040F6A07A5346181A43F24549C0F200097D
:101AD000C84700900191F08943F2C133C0F200037E
:101AE000984742F2BD76C0F200064DF29562CEF6FE
:101AF000260242F60B63C3F61163B04702900391CE
:101B000053466B431800C84702000B000298039924
:101B1000B04702000B0042F6CD46C0F20006009826
:101B20000199B047009001916800C84702000B007E
:101B300042F26D15C0F2000500980199A84742F2E3
:101B40003113C0F200039847434618403843E06021
:101B5000002054E71120404251E70D2040424EE75B
:101B6000FFFF00FFF0B5DE4657464E464546E0B55E
:101B700083B00500884604690600731E9E41F3B2D7
:101B8000019343F67026C0F2000640F2D0523100B5
:101B9000180041F2FB57C0F20007B8472869431EFE
:101BA0009841C0B240F2D1523100B8474046431E7E
:101BB0009841C0B240F2D2523100B8476B88DB0581
:101BC00000D51EE243465B8840F2001213434246B2
:101BD00053802B0043CA43C3636840F2001213438F
:101BE0006360FC3AE3691A42FCD12F693B6899466D
:101BF00043F67021C0F2000140F2A552019841F273
:101C0000FB53C0F2000398476B68012B5CD07B68E4
:101C1000B64A13407B600422FB691A42FCD12B8830
:101C20005A055ED56A88D20704D56A8840F2004119
:101C30000A436A805B0040F2FE7119400422FB698E
:101C40001A42FCD17A6A44F20003134048F20002BF
:101C500013430B437B620422FB691A42FCD12969BE
:101C60000B7EDBB24FF6FF720320184204D10B7ECD
:101C7000DBB2013A002AF8D13E680421FA69114228
:101C8000FCD17A8B92B2D90700D49FE093073ED55E
:101C900001233B766B8841F200010B436B806B881C
:101CA00093490B406B800120030013405842584178
:101CB00005386B888E4A13406B8003B03CBC90465D
:101CC0009946A246AB46F0BD4B461B019FD57A68AC
:101CD0008023DB0213437B600422FB691A42FCD1A0
:101CE0009DE76A885B00FF210B40FE3911401943D4
:101CF0000422FB691A42FCD17A6A44F200031340C1
:101D00000B437B620422FB691A42FCD1A7E753070D
:101D10001BD46B885B0535D52B88DB090621194060
:101D20000422FB691A42FCD17A6A44F20003134090
:101D3000F12213430B437B62ED3AFB691A42FCD15B
:101D40006B886C4A13406B8065E06B68002B04DD88
:101D50006B8841F2000213436B806B881BB2002B2F
:101D600006DB6B88624A13406B8002204042A0E78A
:101D70007A68C0239B0213437B600423FA691342F1
:101D8000FCD1EEE76B6893B96B881BB2002B04DBC8
:101D90006B88574A13406B803DE07A68C0239B02F2
:101DA00013437B600422FB691A42FCD1F0E7AB6865
:101DB0001A782823FA540422FB691A42FCD1AB6832
:101DC0000133AB606B68013B6B6024E09B0722D55D
:101DD0006B68002B3FD052073DD43601F60F013B14
:101DE0006B60002B00D00FE1002E00D112E16B8858
:101DF0001BB2002B1CDB6B883D4A13406B80A9682B
:101E00004B1CAB600422FB691A42FCD12823FB5C0B
:101E10000B7002233B760023019340F2001A03214A
:101E2000042240F2010C40F2020940F2280BB3E018
:101E30007B682F4A13407B600632FF32FB691A42EF
:101E4000FCD17A68C0239B0213437B600422FB69A8
:101E50001A42FCD1CFE702233B760220404228E71A
:101E60006268C0239B02134363600422E3691A4241
:101E7000FCD1A7E002421BD16B885B053CD52B88C7
:101E8000DB0906201840E3691A42FCD1666A44F275
:101E900000033340F126334303436362E3691A428C
:101EA000FCD16B88134803406B800023019373E0DF
:101EB0006B68002B04DD6B8841F2000003436B80EC
:101EC0006B881BB2002B07DB6B88094803406B80D3
:101ED00002235B4201935FE06068C0239B020343DF
:101EE0006360E3691A42FCD1EEE7C046FFFFFBFFE7
:101EF000FFFEFFFFFFFBFFFF6B689BB96B881BB208
:101F0000002B06DB6B88634803406B800023019342
:101F100042E06068C0239B0203436360E3691A42A6
:101F2000FCD1EFE7AB681B7858462354E3691A42AB
:101F3000FCD1AB680133AB606B68013B6B60002385
:101F4000019329E0002701974F461F4224D06B6878
:101F5000002B4ED002424CD1F60E60460640013BAB
:101F60006B60002B00D082E0002E00D185E06B88F2
:101F70001BB2002B2DDB6B88464803406B80A868A2
:101F8000431CAB60E3691A42FCD15B46E35C03701F
:101F90004B462376002301936B88504603422ED094
:101FA0002E69337EDBB24FF6FF70194240D1337E8B
:101FB000DBB201380028F8D143465B881BB2002B06
:101FC00000DA4DE76B88334A13406B8005204042AE
:101FD00073E663682F4803406360E3691A42FCD1EB
:101FE0006068C0239B0203436360E3691A42FCD12B
:101FF000C1E74B46237602235B420193CCE701986D
:102000005BE60620404258E6012B00D0F7E6002EA2
:1020100000D1F4E67A688023DB0213437B6004225C
:10202000FB691A42FCD16B68002B00D1DFE6E6E6C3
:102030002668E0690242FCD1608B80B267461F428D
:1020400000D17FE74B46034200D113E727766B8828
:1020500041F2000633436B806B880E4E33406B8039
:102060006346034058425841431F019394E7012BB4
:1020700000D084E7002E00D181E760688023DB0276
:1020800003436360E3691A42FCD16B68002B00D103
:102090006DE774E7FFFEFFFF10B540F20000C2F2EB
:1020A000000040F25373C0F20003984710BD0000D7
:1020B00030B51E4CA54443F68C23C0F200031B68C8
:1020C0008B9341F2B943C0F20003984742F299035F
:1020D000C0F200039847032440F6E315C0F2000560
:1020E00008A8A847E0B9684640F6A903C0F2000373
:1020F0009847A8B940F2001200210BA843F2F173EF
:10210000C0F2000398470BAA8BA9042040F647634E
:10211000C0F20003984718B9013CE4B2002CDFD1AB
:10212000002040F234239D4430BDC046CCFDFFFF6B
:10213000002370B50022C4F2E01304000D0001F08A
:10214000EFF920B92000290001F00CF970BD00233F
:102150000022C4F2E0132000290000F0B7FD01F0D6
:1021600001F980231B069C466044EFE7F0B5574613
:102170004546DE464E46E0B54C001E000F03CB0F31
:10218000640D85B08346924605003F0B9846002CAF
:1021900053D040F2FF739C4235D08023420F1B0482
:1021A000FF0013433B439946714B00279C46002395
:1021B000C5006444029333031B0B9B4673005B0D05
:1021C000F60F50460196002B63D040F2FF72934207
:1021D00055D05A46D1008022400F120402430A43D0
:1021E00063499346524658180021D2004346201AAC
:1021F00073409C4600900F430F2F00D9BEE05D480E
:10220000BF00C059874603003B439946002B75D158
:1022100002230025082740F2FF740293CBE74346D0
:10222000CB462A0002990193022900D0BDE1019B0F
:1022300040F2FF76002400256DE003003B43994601
:10224000002B55D0002F00D1C8E1380001F072F901
:1022500003000B3B1C2B00DDB9E11D22D31A5A46AB
:102260000100DA4008398F4013005D463B43994630
:102270008D400023404C0027241A02939BE75246CE
:102280005B461A437ABB40F2000B40F2FF7002211A
:10229000ACE75A4602430AB35B46002B00D1A8E1E3
:1022A000584601F047F903000B3B1C2B00DD99E178
:1022B00002005946083A914040F21D0C8B46614697
:1022C000CB1A5146D9400B0059460B439B46534607
:1022D00093401A00284B0021181A87E740F2000BA0
:1022E0000020012182E7524640F2FF7003217DE782
:1022F000012300250427002402935CE70323B94649
:1023000040F2FF740C27029355E780240023002538
:10231000240340F2FF76002128004FF6FF752403C6
:10232000220B0C0D24051443C8F20F0532052C4076
:1023300022435200DB0752081A43110005B03CBC8F
:1023400090469946A246AB46F0BD01225242012377
:10235000991B382900DCBCE16246134000260024AA
:102360000025D8E740F2FF7600240025D3E7C046D9
:1023700001FCFFFF903A00000DFCFFFFD94500D99A
:102380003EE100D139E1009B2F00013B0093002585
:102390004B465946100E09020143080C16024FF62F
:1023A000FF72B3FBF0F80A40140001924246624308
:1023B000444644431B1B1B0499464C463B0C234399
:1023C0009A420FD90124644244445B18A1469942C1
:1023D00000D93DE19A4200D83AE102246442A14684
:1023E0005B18C8449B1AB3FBF0FB5A46019C4FF69E
:1023F000FF7A62435C4644431B1B54461B043C402B
:1024000023439A420DD95C465B18671E994200D956
:1024100020E19A4200D81DE102246442A1465B18E3
:10242000CB449A1A43465C464FF6FF781B041C4384
:10243000330C9A464346270C2340A3464446344077
:1024400003945C430294039C7C43A146544663433B
:102450006743029C4B44240CA0464344994503D94E
:1024600080246402A04647441C0CA146B9444FF6A0
:10247000FF77029C1B042740DB194A4500D2CBE0C2
:1024800000D1C5E04C46171BEB1A9D42AD416D4291
:102490007F1BB94200D107E1B7FBF0F20400019DB8
:1024A000544355433F1B3F041C0C2743BD420AD9EC
:1024B000541E7F18A046B94200D9FFE0BD4200D8A3
:1024C000FCE0023A7F187F1BB7FBF0F568433F1A28
:1024D0004FF6FF70019C3F046C430340A0463B4312
:1024E0009C4209D95B18681E994200D9E8E09C42D9
:1024F00000D8E5E0023D5B18404612042A43039CE5
:10250000150C1B1A4FF6FF7027006C43A04654466B
:1025100010404743654360433C0CA1464044484457
:10252000804503D980246402A0464544040CA0469B
:1025300045444FF6FF78444600043C400019AB4246
:1025400000D299E000D194E001231A4340F2FF3316
:102550000099CE18002E00DCF9E6530700D097E072
:102560005B46DB0107D55946934B194040F20043C7
:102570008B460099CE1840F2FE739E426CDD01231B
:10258000624640F2FF76134000240025C3E6802413
:102590004B462403234215D05B46234211D11C43F2
:1025A0002403240B33001500B3E6032900D1F9E01E
:1025B000019B012900D08AE00B4000260024002561
:1025C000A9E64B461C432403240B4346A1E6030023
:1025D0005A46283B9A40002591464AE600F0AAFF59
:1025E000203035E603005246283B9A4093460022AD
:1025F00070E600F09FFF203055E6954200D2C2E61B
:1026000049464B46CF0769085B080F43ED07C0E614
:1026100000279D4200D337E7AD19B542BF410124E1
:102620007F4264427F185C44BA18A046914207D2A8
:10263000914572D800D1AAE04C46C346171B23E748
:102640009142F9D1AE42F3D94A46A3468F1A1BE70D
:10265000C846C7E6BB46E4E65B46D2085D071543BD
:1026600040F2FF725C02164001236246240B1340C5
:1026700051E6002800D169E7CB18571E994221D9AD
:102680003A00AB4200D05FE7B04200D05CE75DE7C4
:102690000F231340042B00D162E713001A1D9A4246
:1026A0009B415B429B445BE740F2FF33009AD618A4
:1026B000002E00DC49E601235B42EFE7424602E7D9
:1026C000050019E79D4235D866D03A003CE79C46A4
:1026D0003CE71F2937DC2023140058465B1A9A4038
:1026E0009840CC40531E9A4120435C461043CC4056
:1026F000430709D00F230340042B05D00200101D0F
:1027000090429B415B42E418230235D50123624687
:102710000126134000240025FDE5AD19B542BF4157
:1027200002247F4264427F18BF18A0464A46C34431
:10273000BF1AA9E6971E7200B242B64176427118DE
:102740005B1816009CE71F235D465B429E1BF5400D
:10275000202925D05F33591A5B468B401A43531EFC
:102760009A412A430725154000244DB10F23002428
:1027700013401000042BC2D1020065076402240B31
:10278000D20815430123624600261340C3E5AB423D
:10279000C3D8C346002777E68642CBD33A0073E717
:1027A0000023DBE780245B4624031C432403240B23
:1027B000019B1500ADE5C046FFFFFFFEF0B54E469C
:1027C000DE4657464546E0B599464E000B031B0BC7
:1027D000760D87B0040092469B46CD0F002E00D1A7
:1027E00076E040F2FF739E423AD05B46DA008023E7
:1027F000410F1B040B4313439B46714B40F20008EF
:102800009C460023C700664402934B465A001C03B3
:10281000520DDB0F5046240B9946002A00D182E06E
:1028200040F2FF739A4200D175E08023410F1B04F0
:102830000B436349E4001C43C3005018002249467F
:102840003618404669400091711C019110430F28D1
:1028500000D9BBE08000804641465A4841588F4627
:102860005F460743002F00D092E0022340F2000BA6
:1028700040F2080840F2FF760293C6E7494600910D
:10288000022A6CD0032A00D114E2012A00D06CE1A4
:1028900000990024114000270022CDB2002112032C
:1028A0000B0D120B1B0513434FF6FF72C8F20F02FC
:1028B000134024051C436400ED0764082C433800D2
:1028C000210007B03CBC90469946A246AB46F0BDFD
:1028D0001F000743002F53D0002B00D192E11800B6
:1028E00000F028FE03000B3B1C2B00DD84E11D22C1
:1028F000D31A220001005E46DA4008398E401300E8
:102900008C4033439B46270000232F4E40F20008A3
:10291000361A029379E75346234363BB002440F2FF
:10292000FF7002228BE75346234303B3002C00D1F0
:102930005EE1200000F0FEFD03000B3B1C2B00DDE0
:1029400050E11D21CB1A51460200D9405346083AA6
:10295000944093400C431C4A101A00226FE7012553
:10296000009B40F2FF741D400022002796E70024E0
:102970000020012263E7534640F2FF7003225EE726
:10298000012340F2000B40F20408002602933CE7CA
:102990000323070040F20C0840F2FF76029334E76D
:1029A000802200250027120340F2FF7476E75C4680
:1029B0003B00029A64E75C463B000095029A5FE7A1
:1029C00001FCFFFFD03A00000DFCFFFF4FF6FF7542
:1029D0003A0C94461A0C2B4019002F407943894633
:1029E000614648465943150088466146000C8246B8
:1029F0007D435143454455440291A84504D9802064
:102A000040028046414402914FF6FF78290C40462F
:102A1000039149462D04014089462900250C49446B
:102A20000440049121007943884661466143894608
:102A3000614669438C464146090C8A466F434F44C0
:102A40005744B94503D9802149028946CC44390C01
:102A500061444FF6FF7C059160464146014088463F
:102A600003993F0447448846B84441460391594678
:102A7000090C88465846614601408C4659438946B0
:102A800041464B4351438A4661464A434946090CF5
:102A90008B46D2185A44934203D980235B029B464B
:102AA000DA44130C53444FF6FF7A4846514601402E
:102AB0008946414661438A4641466943120491442E
:102AC00088466246614662434D43140C554464197E
:102AD000A24503D9802149028C46E044039802991B
:102AE00084466144B942BF414FF6FF7C0D007942F4
:102AF0008A46059861468446270411407A18624444
:102B00004D4494462F004D45AD41D4446D429B4603
:102B100082429241D4458941A946E3445242494206
:102B2000D944240C0A431219A945AD419B45A4413F
:102B30004B466D4264422C4314194444DB0D64023D
:102B40001C43049B7D021D432B005D1EAB41FF0D0A
:102B50001F434B465B023B43E20157D501275A080E
:102B60003B401343E7073B43640840F2FF320199BF
:102B70008E18002E4CDD5A0709D00F221A40042A65
:102B800005D01A1D9A429B415B42E4181300E201F2
:102B900005D54D4A0199144040F200428E1840F28A
:102BA000FE72964200DDDAE667076402220B012519
:102BB00040F2FF74DB081F43009B34401D406DE66C
:102BC000802259461203114207D0144205D12243F4
:102BD0001203120B4D461F00E6E65B461A43120332
:102BE000120BE1E603005446283B9C400023B2E66A
:102BF00000F0A0FC20309FE60300283B9C4000270B
:102C0000A34681E600F096FC20306BE60196ACE727
:102C10000125AA1B382A05DD009B00241D40002247
:102C200000273BE61F2A20DC20252000AD1A1E00CD
:102C3000AB40A840D6405D1EAB4130431843D44062
:102C4000430709D00F230340042B05D00300181DB0
:102C500098429B415B42E41823021ED50125009B4C
:102C600001241D400022002718E61F2027004042B3
:102C7000861BF740202A1BD05F30821A94402343E2
:102C80005C1EA3413B4307271F4000224FB10F2288
:102C900000241A401800042AD9D1030067076402EF
:102CA000220B0125DB081F43009B00241D40F5E596
:102CB0000024E4E780220125120322430099120335
:102CC000120B0D401F006FE6FFFFFFFEF0B54F46F1
:102CD0004646D6460C03C0B5CD0F4F00610A440FDF
:102CE0000C43C1005800400D844640F2FF798A46EB
:102CF0000E001903500F490A7F0DA846DB0F014350
:102D0000D200CC4500D1DFE040F201094846434003
:102D1000AB4200D1AAE060463D1A002D00DC0FE175
:102D200088B90B001343002B00D1E0E06B1E002B91
:102D300000D060E153469E1AB2458041641A404279
:102D4000241A01271FE040F2FF739F4248D08023DE
:102D50001B041943382D00DD2DE11F2D00DD60E13E
:102D600020230E005B1B10009A409E40E840531E3B
:102D70009A41E9400643164353469E1B611AB245E9
:102D8000A44164420C1B230200D4CEE06402650A15
:102D9000002D00D1F3E0280000F0CCFB0300083B3D
:102DA0001F2B00DDF4E020223400D21A9D40D440D5
:102DB0009E4025439F4200DDF1E0DF1B7B1C1F2B63
:102DC00000DD1FE120223000D21A290096402C009D
:102DD0009140D840721E9641DC40002701430E43CB
:102DE000730709D00F233340042B05D0331DB342A2
:102DF000B6417642A4191E00230228D540F2FF7383
:102E000001379F4200D1CEE01F4001254346C14A11
:102E1000F6081440620764021643240B1D4000218B
:102E20004FF6FF722403230B0C0D24051C43C8F23C
:102E30000F023B05144023435B00ED075B082B4367
:102E4000300019001CBC90469946A246F0BD0125F1
:102E500043466207F6081643E4081D4040F2FF733C
:102E60009F4237D02403240B1F40D8E76346FB1A48
:102E7000002B00DCA5E06046D8B340F2FF7C67453C
:102E8000AED0802636043143382B00DC0AE10A43F9
:102E900016000021721E964156445645804109197C
:102EA00044420C19230240D540F2FF7301379F4280
:102EB00000D15EE10122974B1C40730816401E436F
:102EC000E207164364088BE708001043002800D08F
:102ED0001EE719E723003343002B00D1DFE18023F5
:102EE0001B031C432403240B40F2FF7797E72F00BA
:102EF00076E708001043002800D1D1E0581E0028D2
:102F000000D0F3E0524452458041641840422418F6
:102F100016000127230208D50227CBE764462C437D
:102F2000002C00D1DCE12C006646730700D059E785
:102F30006307F6081E4301254346E4081D408DE75C
:102F4000002D7DD140F2FF75781C0540012D00DC7D
:102F5000FEE05046801A8245B641651A7642AD1BA6
:102F60008446280200D491E05046161AB24292419B
:102F70000C1B5542651B9846002D00D00BE7300016
:102F800000F0D8FA20300300083B1F2B00DC0AE7D2
:102F900035002838854000269F4200DC0DE75D4C57
:102FA000FF1A2C401CE70125434640F2FF771D40E5
:102FB0000024002633E70A4316000021721E9641C2
:102FC000DAE6002B00D0EAE040F2FF7C60467B1C92
:102FD0001840012800DC9FE0634500D1C7E052445F
:102FE00052458041641840422418E60752081643AF
:102FF00064081F00F4E640F2FF7C654500D182E0E2
:103000001D00A7E629001F3FF940202B7ED040225B
:10301000D31A9D402E43751EAE4100240E43002757
:1030200083E72B000E00203BDE40202D70D0402394
:103030005D1BA9400A43511E8A41002116439BE6AD
:10304000002F40D040F2FF76B44549D080263604A8
:103050006D423443382D00DDC5E01F2D00DD42E117
:103060002027260050467F1BBE40E84006435046BE
:10307000B840471EB841EC403043161AB242924164
:103080000C1B5242A41A674698467CE664462C43C1
:103090006646002C00D07BE6002500270026DDE6F2
:1030A0001F009DE61F2B67DC2026F01A0E008446C9
:1030B00086401000D840064360468240501E824140
:1030C000D9401643E8E6260050460643002E00D1BC
:1030D00084E0ED43002DD0D040F2FF76B445B9D165
:1030E0000C00160040F2FF77984679E640F2FF792F
:1030F0004B4508D00300C7E640F2FF76B44500D048
:1031000080E00C00160040F2FF7769E6002581E7B9
:1031100000218FE7FFFF7FFF230050460343002F6E
:1031200000D0C1E0002B00D101E10B001343002BC4
:1031300000D155E65244524580416418404224185B
:103140001600230200D4F0E6854B01371C4047E609
:10315000250050460543A7BB002D68D10C00144341
:10316000002C00D1BCE00C001600984638E640F276
:10317000FF770024002671E61E000800203EF04084
:103180000600202B00D1A9E040F2400C6046C31A93
:1031900099400A43511E8A41002116437CE647BBF1
:1031A000260050460643002E00D1ADE0DB43002B45
:1031B000A2D186189642924164185242A4186746DA
:1031C00070E6002D4CD108001043002800D19FE08C
:1031D0000C001600984640F2FF7701E60C0016003E
:1031E00067469846FCE550462043441EA041002413
:1031F00043E740F2FF76B44500D182E780263604EB
:103200005B423443382B00DD89E01F2B00DD91E069
:10321000202726005046FF1ABE40D840064350469D
:10322000B840471EB8410643DC40B618C2E70D005F
:103230001543002D00D1D3E55046801A8245B64192
:10324000651A7642AD1B8446280200D466E65046D5
:10325000161AB24292410C1B5242A41A9846BFE57C
:103260000D00154340F2FF77002D00D1B8E5504620
:103270006607C00806438020E4080003044207D024
:10328000CD08054204D12C009846D60849070E43C4
:10329000730FE4001C43F60040F2FF77A0E5002620
:1032A00040F2FF770024BAE5002B00D129E70B009C
:1032B000134340F2FF77002B00D191E5C008660769
:1032C00006438020E40800030442E1D0CB08034217
:1032D000DED1D60849070E431C00D9E7002158E784
:1032E00000250026BAE52E002000203EF040060012
:1032F000202D31D040277D1BAC4050462043441E3A
:10330000A04100243043B8E60C001600674667E58C
:1033100080240025240340F2FF7700269EE55046D6
:1033200020430600701E86410024B61842E70C00B8
:10333000160055E51E002000203EF0400600202B20
:103340000CD04027FB1A9C4050462043441EA0410D
:1033500006430024B6182DE70024CEE70024F3E747
:10336000FFFF7FFF30B540F2FE350A034B00120B22
:103370005B0DC90F0024AB4212DD40F21D44A34295
:1033800010DC802440F2334564032243ED1A1F2DE4
:103390000BDD40F21340C31ADA40544201B9140065
:1033A000200030BD044BCC18FAE7044CE840A4469A
:1033B00063449A400243F0E7FFFFFF7FEDFBFFFF0E
:1033C00070B5002838D0C317C4185C40C50F200062
:1033D00000F0B0F840F21E4340F233421B1AD21AFA
:1033E0001F2A1DDD40F21342D21A944040F2FF72B0
:1033F000134000222403240B0021100024030A0D93
:10340000240B120522434FF6FF74C8F20F0422402A
:103410001B0513435B00ED075B082B43190070BDD0
:10342000210091400A000B21081AC44040F2FF71AC
:103430002403240B0B40DFE7002500230024002297
:10344000DAE7C04610B50400002830D000F072F86A
:1034500040F21E4340F233421B1AD21A1F2A1ADDD1
:1034600040F21342D21A944040F2FF7213400022FD
:103470002403240B0021100024030A0D240B120541
:1034800022434FF6FF74C8F20F0422401B0513437A
:103490005B00590810BD210091400A000B21081A59
:1034A000C44040F2FF712403240B0B40E2E70023E9
:1034B00000240022DEE7C0468446101C62468C468B
:1034C000191C634600E0C0461FB500F0EFF8002865
:1034D00001D40021C8421FBD10B500F049F8404298
:1034E000013010BD10B500F0E1F8002801DB00202C
:1034F00010BD012010BDC04610B500F0D7F800285F
:1035000001DD002010BD012010BDC04610B500F047
:103510006BF8002801DC002010BD012010BDC04662
:1035200010B500F061F8002801DA002010BD01207C
:1035300010BDC0461C2101231B04984201D3000C7E
:1035400010391B0A984201D3000A08391B09984216
:1035500001D30009043902A2105C40187047C0462C
:10356000040302020101010100000000000000004C
:10357000F0B54F464646D6465C00C0B51F03DB0F8C
:103580009A4640F2FF730E034D0084468046360B88
:103590006D0DC90F91463F0B640D01209D4208D06F
:1035A0009C4201D0A5420DD01CBC90469946A24633
:1035B000F0BD63463343002BF6D1AC42F4D13A431D
:1035C000002AF1D10120BE42EED1C845ECD15145CF
:1035D00007D0002DE8D163461E433000461EB0419F
:1035E000E2E70020E0E7C046F0B54E464546DE463D
:1035F000574640F2FF79E0B51F033D0B0E034C0028
:10360000AB465D008446360B640DC90F90466D0DC8
:10361000DB0F4C452ED040F2FF794D451DD06CB9E3
:1036200030430700814678427841C0B2E5B95F4631
:103630003A43CAB94B4600204BB105E015B958468C
:1036400002430AB199421AD04842012108433CBCC6
:1036500090469946A246AB46F0BD5F461743002F01
:10366000DDD002204042F2E70028EBD00120013BF0
:103670001843ECE737000743002FCCD0F1E7AC420A
:10368000E2DC03DA481E01210843E0E75E45DBD8AF
:1036900006D000205E45DAD20123481E1843D6E743
:1036A000C445D1D80020C445F6D3D0E7F0B557467D
:1036B0004E464546DE465C00E0B51F03DB0F9A46EA
:1036C00040F2FF730E034D00C90F8046360B6D0D9F
:1036D0008B4691463F0B640D9D4223D040F2FF7311
:1036E0009C4219D085B9304343424341DBB2FCB11F
:1036F0005BB153460120013B034318003CBC90469C
:103700009946A246AB46F0BDCCB1D3451BD05B4633
:10371000594201230B43F0E73900114302230029EA
:10372000EBD1DFE73100014302230029E5D1D5E7E2
:103730003A43002ADCD100230028DED0E7E73A43F1
:10374000002AE2D1E3E7A542E1DC05DBBE42DED898
:1037500007D00023BE42D0D25946012301390B4382
:10376000CBE7C845D3D80023C845F5D3C5E7C04645
:1037700070B500250E4B0F4CE41AA410A54209D1D8
:10378000002500F0C5F90C4C0C4BE41AA410A5421E
:1037900007D170BD064AAB009B181B6898470135DE
:1037A000ECE7064AAB009B181B6898470135EEE72B
:1037B0001C3B00001C3B0000203B00001C3B0000A9
:1037C00030B50024A24201D1002005E0035D651C54
:1037D0000C5DA34201D0181B30BD2C00F2E7002382
:1037E00010B59A4200D110BDCC5CC4540133F8E747
:1037F00003008218934200D1704719700133F9E732
:10380000580300006C03000074030000580300001C
:1038100058030000740300007C03000082030000D2
:10382000A0030000B4030000BA030000C0030000BE
:10383000C6030000C6030000C6030000C00300006A
:10384000280026001C003E0015002B00110045003A
:1038500030000200170018000800230016003C008A
:10386000010002001B0032000200050047001600A4
:1038700020000C0012002A0051001B002800280024
:10388000240019001C00320043004B0015001900F1
:1038900040007300300005005600A500170023000B
:1038A0000800370016001400460032001B00170005
:1038B00002000500800050007700FA004700240055
:1038C0004100730020000A004500690012002D002D
:1038D00051001B0028002800240019001C003200A1
:1038E0004300AC00150023004000D7003000050065
:1038F0005600A5001700230008003700160014002A
:10390000460032001B001700020005008000A000E6
:103910007700710247002A004100DC0020000A0005
:103920004500270112002D0051001B00280028002F
:10393000240019001C00320043001302150023006C
:1039400040008D02300005005600A500170023003E
:103950000800370016001400460032001B00170054
:10396000020005008000E0017700140947004B00C9
:103970004100990220000A0045003D0412002D007C
:1039800028000D00240014001C00320043003A00FF
:1039900015000B00400073001100170030000200FA
:1039A0001700200008000E0016001D000100030093
:1039B000460030001B001700020005004700090008
:1039C00041003C0020000A004500480012001A0097
:1039D00028000D00240014001C00320015000B000C
:1039E0004000730011001700300002001700200093
:1039F00008000E0016001D00010003004600300004
:103A00001B001700020005004700090041003C00B0
:103A100020000A004500480012001A000411334338
:103A20000407C440000000880100000000000000FE
:103A30002E2E2F68616C2F7372632F68616C5F6923
:103A400032635F6D5F73796E632E63000004004222
:103A500000080042000C004200000000140020009A
:103A6000000100000E0F00000000D70000093D001B
:103A70002E2E2F68706C2F736572636F6D2F6870B8
:103A80006C5F736572636F6D2E63000074BA2521DD
:103A90007C230000642300005C2300002822000037
:103AA0005C2300000A2300005C23000028220000A1
:103AB00064230000642300000A2300002822000081
:103AC0001E2200001E2200001E2200008E25000083
:103AD000CC29000080280000802800007C280000FD
:103AE000AE290000AE290000A02900007C280000BB
:103AF000AE290000A0290000AE2900007C280000AB
:103B0000B6290000B6290000B6290000C02B00002D
:103B1000F8B5C046F8BC08BC9E467047410200009C
:103B2000F8B5C046F8BC08BC9E46704715020000B8
:103B300000010000C0000000A0860100000000009D
:103B40000000000000000000000000000000000075
:103B50000000000020030000140000007801002095
:10FB00007FE97FE9F0F70FBB7FE97FE9F0F7F2BA11
:10FB100000000000000000000000000000000000E5
:0200000400807A
:104000003F438FB0BB180000FF20087F0100000075
:1040100000000000000000000000000000000000A0
:00000001FF
